:020000040800F2
:10000000A04200209D010008E33200088529000875
:10001000E1320008790C0008AF3E00080000000043
:10002000000000000000000000000000C53C0008C7
:100030007B0C000800000000E5320008C73C000807
:10004000B7010008B7010008B7010008B7010008B0
:10005000B7010008B7010008B7010008B7010008A0
:10006000B7010008B7010008B7010008B701000890
:10007000B7010008B7010008B7010008B701000880
:10008000B7010008B7010008B7010008B701000870
:10009000B7010008B7010008B7010008B701000860
:1000A000B7010008B7010008B7010008B701000850
:1000B000B7010008B7010008B7010008B701000840
:1000C000B7010008B7010008B7010008B701000830
:1000D000B7010008B7010008B7010008B701000820
:1000E000B7010008B7010008B7010008B701000810
:1000F000B7010008B7010008B7010008B701000800
:10010000B7010008B7010008B7010008B7010008EF
:10011000B7010008B7010008B7010008B7010008DF
:10012000B7010008B7010008B7010008B7010008CF
:10013000B7010008B7010008B7010008B7010008BF
:10014000B7010008B7010008B7010008B7010008AF
:10015000B7010008B7010008B7010008B70100089F
:10016000B7010008B7010008B7010008B70100088F
:10017000B7010008B7010008B7010008000000003F
:10018000B7010008B7010008DFF80CD000F07EFBD3
:1001900000480047D1670008A04200200648804779
:1001A00006480047FEE7FEE7FEE7FEE7FEE7FEE75C
:1001B000FEE7FEE7FEE7FEE7513D00088901000883
:1001C0002DE9F05F0546002092469B46884606468C
:1001D000814640241BE0284641464746224600F01F
:1001E00046FA53465A46C01A914110D31146184652
:1001F000224600F02DFA2D1A67EB01084F462246E1
:100200000120002100F024FA17EB00094E41201EC6
:10021000A4F10104DFDC484631462A464346BDE8E6
:10022000F09F40EA01039B0703D009E008C9121FB1
:1002300008C0042AFAD203E011F8013B00F8013BA0
:10024000521EF9D27047D2B201E000F8012B491ECC
:10025000FBD270470022F6E710B513460A46044663
:100260001946FFF7F0FF204610BD2DE9FE4F8046EE
:1002700081EA0300C00F0C46009021F0004123F0FA
:100280000045B8EB0200A94105D240462146904600
:100290001C460B46024623F00040104347D0270D72
:1002A000C7F30A00C3F30A510290401A0190402894
:1002B0006BDAC3F3130040F4801B0098924620B120
:1002C0000023D2EB030A63EB0B0B01985946C0F1F4
:1002D0004002504600F0BCF906460D4650465946CD
:1002E000019A00F0D4F910EB08006141002487EA7C
:1002F000115284EAE7731A4340D0009A62B3019A1C
:10030000012A4FEA075215DC001B61EB02014FF096
:10031000004202EA0752CDE90042001C41F580117B
:1003200032462B4600F00BFA03B0BDE8F08F404692
:100330002146F9E7001B61EB0201001C41F5801327
:1003400000185B412018A2F5001747EB030140EAB3
:10035000D570B6196D4111E06D084FEA360645EAD1
:10036000C0754FEA0752001B61EB0201001C41F50A
:10037000801149084FEA30000019514132462B469E
:1003800003B0BDE8F04F00F0CBB900980122400067
:100390000023D0EB020263EBE073009821464FEAA2
:1003A000E074B8EB000061EB0401E9E783F000437F
:1003B0005BE781F0004158E72DE9FE4F81EA030435
:1003C00004F0004421F0004100944FF0000B23F0B2
:1003D000004350EA01045ED052EA03045BD0C3F349
:1003E0000A54C1F30A552C44A4F2F3340194A0FB3F
:1003F0000254C1F3130141F48011C3F3130343F416
:10040000801301FB024400FB034E840A970A44EA6E
:10041000815447EA8357A4FB076802958D0A05FBC0
:1004200007854FEA932C04FB0C542705029D4FEAE5
:10043000065847EA1637B5EB08056EEB070C870E32
:10044000920E47EA811742EA8312A7FB0201B6EB3C
:100450000B0164EB00042B0D43EA0C335E1844EBF4
:100460001C50DA465146E7FB0201C5F313044FEA7C
:100470000B3343EA14534FEA0432019C43EA060368
:10048000A4F10C040294009CCDE900B400F057F9EB
:1004900003B0BDE8F08F00200146F9E72DE9F04DEB
:1004A00081EA030404F0004B21F0004514464FF0AC
:1004B000000A23F0004150EA050220D054EA01026C
:1004C0001DD0C5F30A570246C5F31303C1F3130049
:1004D000C1F30A5640F4801543F48013A7EB0608D5
:1004E000101BD64608F2FD3873EB050002D308F165
:1004F000010801E092185B41B8F1000F03DA002017
:100500000146BDE8F08D00204FF480110646844678
:100510000EE0171B73EB050705D3121B63EB0503F6
:1005200006434CEA010C49084FEA300092185B413F
:1005300050EA0107EDD152EA030012D082EA04002A
:1005400083EA0501084305D0101BAB4106D2012206
:10055000002306E000224FF0004302E06FF00102AA
:1005600053101AEB06004CEB085110EB0A0041EB5C
:100570000B01BDE8F04D00F0D3B80EB540F23341A9
:1005800002910021CDE900110A460B4600F0D7F890
:1005900003B000BDC1F30A5210B5C1F3130140F21C
:1005A000FF3341F480119A4201DA002010BD40F27D
:1005B00033439A42A2F2334203DC524200F057F82E
:1005C00010BD904010BD00F0004230F000400AD055
:1005D000C10D01F56071C0F3160042EA0151C20875
:1005E00040071143704700200146704701F0004367
:1005F00030B421F0004150EA010206D00A0DA2F504
:100600006072C1F31301002A02DC30BC0020704785
:10061000440F44EAC104C100E01830BC00EBC250F2
:1006200000F047B830B50B460146002020220124D7
:1006300009E021FA02F59D4205D303FA02F5491BB0
:1006400004FA02F52844151EA2F10102F1DC30BDC6
:10065000202A04DB203A00FA02F100207047914082
:10066000C2F1200320FA03F3194390407047202A77
:1006700004DB203A21FA02F00021704721FA02F34C
:10068000D040C2F120029140084319467047202A09
:1006900006DBCB17203A41FA02F043EAE07306E0AA
:1006A00041FA02F3D040C2F12002914008431946BA
:1006B00070470029A8BF7047401C490008BF20F0C0
:1006C0000100704710B4B0FA80FC00FA0CF050EA58
:1006D000010404BF10BC704749B1CCF1200421FAD9
:1006E00004F411FA0CF118BF012121430843A3EBD4
:1006F0000C01CB1D4FEA00614FEA102042BF0020E1
:1007000010BC704700EBC35010440029A4BF10BCBC
:100710007047401C490008BF20F0010010BC704722
:1007200010B5141E73F1000408DA401C41F10001F9
:1007300092185B411A4301D120F0010010BD2DE950
:10074000F04D92469B4611B1B1FA81F202E0B0FA47
:1007500080F220329046FFF77BFF04460F4640EAC6
:100760000A0041EA0B0153465A46084313D011468A
:1007700053EA010019D0C8F140025046FFF777FF55
:1007800005460E46504659464246FFF761FF08436C
:1007900005D0012004E020463946BDE8F08D002058
:1007A000054346EAE0762C4337430A986305E40A9A
:1007B000A0EB08000022FD0A44EA47540A3002D5A3
:1007C00000200146E9E7010510196941DDE9084506
:1007D00000196941BDE8F04DA2E770B521F0004372
:1007E00003430CD0C1F30A550024D5EB040564EB98
:1007F0000403D617AD1AB34102DB0020014670BDD9
:10080000201841EB025170BD0EB5C10F80EAE070B7
:100810000844CA07002140F233438DE80E000A461F
:100820000B46FFF78CFF03B000BDC1F30A52C1F3C2
:10083000130140F2FF3341F480119A4202DA0020A2
:100840000146704740F233439A42A2F2334202DC3F
:100850005242FFF70CBFFFF7FBBE000030B5041E8D
:1008600071F1000404DB4FF00044404264EB0101ED
:10087000141E73F1000405DB1C464FF00043524286
:1008800063EB0403994208BF904230BD064C074D0C
:1008900006E0E06840F0010394E807009847103450
:1008A000AC42F6D3FFF774FCDC6F0008FC6F000865
:1008B0002DE9F04D00231A461B1A8A4103DB002064
:1008C0000146BDE8F08DC1F30A52C1F3130141F4B2
:1008D00080154FF0000BD10702D100186D41521E58
:1008E0000027044640F2FF11384601EB620A3E46FB
:1008F0008046024600204FF48011FFF7B8FEC2196F
:100900007141BB1846EB0100B4EB030C75EB000C16
:1009100004D3E41A65EB000517460E46241908F1C6
:1009200001006D4180463428E3DDF91946EB0600ED
:10093000091BA84103D24FF0FF32134601E0002209
:1009400013461BEB070046EB0A51BDE8F04DFFF7DD
:10095000E7BE0000464910B54A6822F440324A60BA
:100960004A6843681A434A6001684A6822F4807200
:100970004A6001684A68036942EA03224A600168E2
:100980004A6822F040724A6001684A6883681A43E4
:100990004A6001688A6822F400628A6001688A6895
:1009A000C3681A438A60816A6FF07062D14201683D
:1009B0008A6822F070628A6001688A680CD0836A53
:1009C0001A438A6001688A6822F040528A6001688E
:1009D0008A68C36A1A4301E022F040528A600168C3
:1009E0008A6822F002028A6001688A68037E42EA0D
:1009F00043028A6090F82010002901684A680FD0ED
:100A000042F400624A6001684A6822F460424A6027
:100A100001684A68174C436A04EB43331A4301E008
:100A200022F400624A600168CA6A22F47002CA6253
:100A30000168CA6A838B104C04EB03531A43CA62E1
:100A400001688A6822F400728A6001688A6890F8F6
:100A5000303042EA43228A6001688A6822F4806268
:100A60008A6001688A68406942EA8020886010BD17
:100A70000023014000E0FFFF0000F0FF064910B531
:100A8000486000F045F820B9452000F071F80028D2
:100A900000D0012010BD0000540000207CB50546A8
:100AA000184C0A200090022301AA4621606800F039
:100AB000A1FC08B101207CBDBDF80400617840BAFA
:100AC00000EE100A4529B8EE400A09D000EE901A4F
:100AD000DFED0D1AB8EE601AC1EE810A20EE800A31
:100AE0002078212801D0112803D1F6EE000A20EE4B
:100AF000200ADFED060A002080EE201A85ED001A9C
:100B00007CBD00005400002000008A429A99993F61
:100B10001CB507208DF804000A2000900548012329
:100B200001AA4621406800F055FD002800D00120B0
:100B30001CBD00005400002011B581B09DF80400D8
:100B4000010951EA50110FD000F00F0103290BD811
:100B5000064C012301AA20700A20009046216068FB
:100B600000F038FD002800D001201CBD54000020FA
:100B70007CB5A0F11F01E0291FD2114C402141EAB0
:100B8000501160708DF8041000F01F0040F06000FC
:100B90000A258DF805000095012301AA4621606809
:100BA00000F018FD48B9009501230DF1050246211A
:100BB000606800F00FFD002800D001207CBD00001F
:100BC0005400002010B501242146034800F036FBF4
:100BD00000B10024204610BD00000240014601483B
:100BE00001F0BCBBB001002010B5044801F0C8FB07
:100BF000042801D0012010BD002010BDB00100204C
:100C000010B500F00BF8012801D0012010BDBDE89F
:100C10001040014801F0CABBB001002008B5012016
:100C20008DF80000FFF7CEFF10B900208DF800000E
:100C30009DF8000008BD000038B50024009313465D
:100C40000A460146034801F041FC00B10124204658
:100C500038BD0000B001002038B5002400931346D1
:100C60000A460146034801F02DFD00B1012420464B
:100C700038BD0000B0010020FEE77047002200F000
:100C800001B8000030B50E4B054601205C7A002CFF
:100C900014D1587A1C54587A03EB800045605D7A71
:100CA00003F108002A54587A421C5A7230300870F6
:100CB0003A2048702F208870CC70002030BD000092
:100CC0009402002078B50024009490F83C20012A7A
:100CD00019D0012280F83C200A6807230568092AF8
:100CE00013D9EE680A3A02EB420293409E43EE604B
:100CF0000B788A680A3B03EB43039A400368DD687C
:100D00002A43DA6010E0022078BD2E6902EB42022D
:100D100093409E432E610B788A6803EB43039A400D
:100D200003681D692A431A614A681F23072A13D2E0
:100D300005686E6B521E02EB820293409E436E6307
:100D40000B790A885B1E92B203EB83039A40036817
:100D50005D6B2A435A6327E005680D2A12D22E6B79
:100D6000D21F02EB820293409E432E630B790A88C6
:100D7000DB1F92B203EB83039A4003681D6B2A4387
:100D80001A6311E0EE6A0D3A02EB820293409E4331
:100D9000EE620B790A880D3B92B203EB83039A4013
:100DA0000368DD6A2A43DA62164B0568144A9D42DD
:100DB00006D10D68122D03D1556845F480055560A4
:100DC00005689D4218D10B68102B01D0112B13D14F
:100DD000536843F400035360096810290CD10A4991
:100DE0000A4A0968B1FBF2F101EB8101490000E018
:100DF000491E00910029FBD180F83C40002078BDBD
:100E000000230140002001405C00002040420F0010
:100E1000006C70470068C06C704770B504004FF0FC
:100E2000000503D0206C002610B107E0012070BD42
:100E3000204600F01DF8666484F83C60206CC00613
:100E400010D4206C20F4885040F00200206420462A
:100E5000FFF780FD6664206C20F0020040F0010086
:100E6000206400E0012584F83C60284670BD000045
:100E700010B586B0044614216846FFF7EBF9114916
:100E8000206888421CD110480021026842F4807218
:100E90000260006800F4807005900B481438026806
:100EA00042F004020260006800F0040005900E2089
:100EB00000900320CDE901016946044800F0E2F802
:100EC00006B010BD00200140443802400008024036
:100ED0002DE9F041044600680D4681684FF0000797
:100EE00049050BD58068C00508D5206C40F020006E
:100EF000206484F83C700120BDE8F08100F0B0F976
:100F000006460FE0681C0DD025B100F0A9F9801B42
:100F1000A84207D9206C40F00400206484F83C709B
:100F20000320E9E7206800688007EBD521686FF0AF
:100F300012000860206C40F4007020642068816812
:100F400011F0405F13D1217E89B9C16A11F4700F8D
:100F500002D0806840050AD4206C20F480702064A0
:100F6000206CC00403D4206C40F0010020640020F9
:100F7000C2E7000018B50021009190F83C20012A3A
:100F800007D0012280F83C2002689368DB0702D07A
:100F900011E0022018BD936843F0010393602A4AD0
:100FA0002A4B1268B2FBF3F202EB420200E0521E3F
:100FB0000092002AFBD102689368DB0741D0036CE2
:100FC00040F20164A34343F48073036453685B05F8
:100FD00005D5036C23F4005343F480530364036C7E
:100FE000DB0404D5436C23F00603436400E0416452
:100FF00080F83C1016496FF02203136049680068BE
:10100000CA06144906D088421BD1816811F0405F9E
:1010100013D016E08842F8D00F4A904203D1D1F89D
:101020000423D206F1D00D4A90420AD1D1F804131C
:1010300001F01F011029E8D303E0816841F08041ED
:101040008160002018BD00005C00002040420F00BD
:101050000023014000200140002101400022014006
:1010600070B5044600F0FCF80546601C02D0044848
:101070000078044400F0F4F8401BA042FAD370BD9D
:10108000480000202DE9F84F00224FF00108032509
:101090004FF00F0E0B6808FA02F42340A3426ED102
:1010A0004E68012E05D0022E03D0112E01D0122E33
:1010B00012D186684FEA420C05FA0CF7BE43CF689E
:1010C00007FA0CF7374387604668A6430C79C4F3E8
:1010D0000014944034434460C668570005FA07FC86
:1010E0008C6826EA0C06BC403443C4604C68022C71
:1010F00001D0122C13D1D40800EB8404A346D4F8F9
:10110000209054074FEAD46A0EFA0AF629EA060933
:101110000E6906FA0AF646EA0906CBF82060066868
:101120000C7926EA0C0604F00304BC403443046046
:101130004C68E40065D5364C266846F48046266047
:10114000246822F0030604F480440094314C3444B3
:10115000A446D4F808489607370F0EFA07F6B443AA
:101160002D4EB04201D1002624E02C4EB04201D1D8
:1011700001261FE02A4EB04202D102261AE040E0CA
:10118000284EB04201D1032614E0274EB04201D1CF
:1011900004260FE0254EB04201D105260AE0244E78
:1011A000B04201D1062605E0224EB04201D1072609
:1011B00000E00826BE402643CCF808681E4E34687E
:1011C0004F689C43FF0300D51C4334601A4C241D18
:1011D00026684F689E43BF0300D51E432660164E07
:1011E000083634684F689C43FF0200D51C433460C6
:1011F000114E0C3634684F689C43BF0200D51C4327
:101200003460521C102AFFF445AFBDE8F88F00008F
:101210004438024000300140000002400004024017
:1012200000080240000C024000100240001402407E
:1012300000180240001C0240003C014000690840C8
:1012400000D001207047426931EA020200D109044E
:10125000816170470AB1816170470904FBE70000B2
:1012600001488068704700004800002070B5040005
:1012700025D094F83D00002520B984F83C50204644
:1012800000F0D2FB242084F83D002068016821F0A2
:10129000010101602068016841F40041016020689B
:1012A000016821F40041016000F08EFD4D4A616843
:1012B000914201D84C4900E04C49884201D20120BA
:1012C00070BD4B492368B0FBF1F15E6826F03F0624
:1012D0000E435E606368934206D94FF49673594398
:1012E0004FF47A73B1FBF3F12368491C1E6A26F0B0
:1012F0003F06314319626168914210D84900401E8F
:10130000B0FBF1F2521CC2F30B02042A01D20420FA
:1013100022E0B0FBF1F0401CC0F30B001CE0A2681F
:10132000F2B301EBC10303EB0116431EB3FBF6F36B
:101330005B1C43F480431B0549D092B301EBC1020F
:1013400002EB0111401EB0FBF1F0401CC0F30B009A
:1013500040F4804040F400402168CA694CF6FF73B5
:101360009A431043C861D4E907100143206802681A
:1013700022F0C00211430160D4E903010143206857
:10138000826848F2FF339A4311438160D4E9050132
:1013900008432168CA6822F0FF021043C86001E0D8
:1013A0000EE016E02068016841F00101016025644B
:1013B000202084F83D00256384F83E50002070BD55
:1013C00001EB4106431EB3FBF6F35B1CB3E70120C0
:1013D000C2E701EB4101401EB0FBF1F0401CC0F33D
:1013E0000B00B7E7A086010080841E0000093D00C5
:1013F00040420F002DE9F84F1F4690468A460446AA
:10140000DDF82890FFF72CFF054694F83D002028D2
:1014100075D1192301226C492046009501F086FC04
:101420000028F5D194F83C00012868D0012084F808
:101430003C0020680168C90703D1016841F001013F
:1014400001602068016821F400610160222084F8B5
:101450003D00102084F83E0000262664C4F8248055
:101460006785608D20855948E0622B464A46514683
:10147000204601F09FFA002878D1208D544F68B1A2
:10148000012814D002282068016816D041F4806138
:101490000160206841698069009087E020684169A7
:1014A00081690091016841F4007101607EE020686B
:1014B000016821F480610160F0E721F4806101603E
:1014C0002068016841F40061E2E7032848D8012858
:1014D0000AD0022814D04B460022394620460095F7
:1014E00001F024FCD8BB27E02A464946204601F0FB
:1014F0009CFCA0BB20680069616A08704DE061E057
:101500004B46002239462046009501F00FFC30BBC7
:101510002068016841F40071016020680069616A17
:101520000870606A401C6062218D491E2185618DB2
:10153000491E618521682EE02068016821F48061E0
:10154000016020680069616A0870606A401C60621E
:10155000208D401E2085608D401E6085D0E705E00F
:101560002A464946204601F060FC10B10120BDE842
:10157000F88F20680069616A0870606A401C6062C8
:10158000218D491E2185618D491E618521684A6929
:10159000D24352070AD409690170606A401C606234
:1015A000208D401E2085608D401E6085208D002886
:1015B0008BD1202084F83D0084F83E6084F83C60A4
:1015C0000020D4E70220D2E7020010000000FFFF55
:1015D000040001002DE9F84F1F4690468A46044654
:1015E000DDF82890FFF73CFE054694F83D002028E2
:1015F0007FD11923012240492046009501F096FB36
:10160000002876D194F83C00012872D0012084F89B
:101610003C0020680168C90703D1016841F001015D
:1016200001602068016821F400610160212084F8D4
:101630003D00102084F83E0000262664C4F8248073
:101640006785608D20852D48E0622B464A465146CD
:10165000204601F025FA90B9206841698069009020
:1016600036E02A464946204601F012FC50B1206C73
:10167000042804D12068016841F400710160012050
:10168000BDE8F88F606A216800780861606A401CD4
:101690006062618D491E6185218D491E89B2218557
:1016A00022685369DB435B070BD451B100781061AA
:1016B000606A401C6062608D401E6085208D401E07
:1016C00020852A464946204601F00AFB0028CED153
:1016D000208D0028C5D154F83D0B016841F40071FC
:1016E0000160202004F81E09E67766770020C7E72E
:1016F000FFE70220C4E70000020010000000FFFF27
:101700002DE9FF4F83B09A46DDE9119793460446D1
:10171000DDF84080FFF7A4FD054694F83D00202841
:1017200070D11923012271492046009501F0FEFA7B
:101730000028F5D194F83C00012863D0012084F8FA
:101740003C0020680168C90703D1016841F001012C
:1017500001602068016821F400610160222084F8A2
:101760003D00402084F83E0000262664C4F8248012
:10177000A4F82A90608D20855D48E062CDE900756F
:1017800053465A462046049901F0D8F900287CD1E6
:10179000208DD0B1012821D00228206824D04169B1
:1017A00080690090208D032869D801282BD05149E9
:1017B00002283B464FF00002009559D0884620464B
:1017C00001F0B4FA002860D13CE0206841698169E9
:1017D0000091016841F40071016077E020680168C0
:1017E00021F480610160F0E7016821F4806101600B
:1017F0002068016841F400610160206841698069E6
:10180000009063E06FE02A463946204601F00DFB68
:1018100098BB20680069616A08704EE02068016822
:1018200041F40071016020680069616A0870606AB3
:10183000401C6062218D491E2185618D491E618594
:10184000216838E02068016821F480610160206827
:101850000069616A0870606A401C6062208D401EE9
:101860002085608D401E60853B46002241460095E4
:10187000204601F05BFA00B9D0E706E0FFE72A4610
:101880003946204601F0D1FA18B1012007B0BDE871
:10189000F08F20680069616A0870606A401C6062AD
:1018A000218D491E2185618D491E618521684A6906
:1018B000D24352070AD409690170606A401C606211
:1018C000208D401E2085608D401E6085208D002863
:1018D0007FF468AF202084F83D0084F83E6084F8EF
:1018E0003C600020D2E70220D0E700000200100098
:1018F0000000FFFF040001002DE9FF4F83B09A466E
:10190000DDE9119793460446DDF84080FFF7A8FC17
:10191000054694F83D0020287FD119230122404933
:101920002046009501F002FA002876D194F83C0098
:10193000012872D0012084F83C0020680168C907A2
:1019400003D1016841F0010101602068016821F4C0
:1019500000610160212084F83D00402084F83E00B1
:1019600000262664C4F82480A4F82A90608D20857F
:101970002C48E062CDE9007553465A46204604994A
:1019800001F05AF970B930E02A463946204601F094
:101990007FFA58B1206C042804D12068016841F412
:1019A00000710160012007B0BDE8F08F606A216816
:1019B00000780861606A401C6062218D491E89B20E
:1019C0002185628D521E628522685369DB435B0765
:1019D0000BD469B100781061606A401C6062208D90
:1019E000401E2085608D401E6085208D0028CBD153
:1019F0002A463946204601F073F90028CAD154F826
:101A00003D0B016841F400710160202004F81E09BB
:101A1000E67766770020C6E7FFE70220C3E700000D
:101A2000020010000000FFFF2DE9F04186B00446DF
:101A300014216846FEF70EFC2368394CDFF8DCC041
:101A400037491222012503260427364810346345FE
:101A500015D10B6843F002030B60096801F0020125
:101A60000591C0218DE8E6006946FFF70BFB206871
:101A700040F400102060206800F4001019E0DFF846
:101A8000A8C0634519D10B6843F002030B600968D5
:101A900001F0020105914FF440618DE8E6006946CE
:101AA000FFF7F0FA206840F480002060206800F41E
:101AB0008000059006B0BDE8F0811C488342F9D152
:101AC000086840F004000860086800F00400059011
:101AD000086840F0010008600868904600F00100C6
:101AE00005905815CDE9000202AB694683E8E00095
:101AF0000F48FFF7C7FA4FF48070CDE9000802AB3A
:101B0000694683E8E0000B48FFF7BCFA206840F420
:101B100000002060206800F40000CAE70054004084
:101B2000303802400004024000580040005C004091
:101B30000008024000000240024881680278114417
:101B400081607047480000200B4810B5016841F4DF
:101B500000710160016841F480610160016841F435
:101B600080710160032000F063F8002000F006F8A7
:101B700000F024F8002010BD003C024070B50D4D6F
:101B800004464FF47A712878B1FBF0F00A490968ED
:101B9000B1FBF0F000F07CFE48B9102C07D2002217
:101BA0002146501E00F024F800206C6070BD01201A
:101BB00070BD0000480000205C0000200B4882B08F
:101BC000016841F480410160006800F480400090A9
:101BD0000648001F016841F080510160006800F074
:101BE00080500090072002B000F022B84438024034
:101BF000F0B40E4B1B680C46C3F30223C3F1070578
:101C0000042D00D90425191D072901D2002300E065
:101C1000DB1E012606FA05F1491E214099409E402F
:101C2000761E16403143F0BC02F06EB90CED00E0B8
:101C3000064900F0070208684FF6FF03184040EA23
:101C40000220034A10430860704700000CED00E0DA
:101C50000000FA052DE9F0470E46050065D0DFF8D3
:101C60001481D8F80000F7B200F00F00B04207D29C
:101C700088F80070D8F8000000F00F00B04254D18E
:101C800028683D4C810712D5400703D5206840F4F1
:101C9000E05020602878000703D5206840F46040B9
:101CA00020602068A96820F0F000084320602878B0
:101CB000C0072DD0304968680839012812D00228A1
:101CC00013D0032811D00968890700292DDA21686B
:101CD00021F0030101432160FFF7C2FA814641F27E
:101CE000883A0EE009688903EFE709688901ECE7A3
:101CF000FFF7B6FAA0EB0901514502D90320BDE870
:101D0000F0872068696800F00C00B0EB810FEFD11C
:101D1000D8F80010404601F00F01B14207D9077012
:101D2000006800F00F00B04201D00120E7E72878FA
:101D3000400705D52068E96820F4E050084320609A
:101D40002878000706D52068296920F4604040EA19
:101D5000C100206000F058F82168084AC1F303115F
:101D6000515CC8400649086006480068FFF706FF56
:101D70000020C4E7003C024008380240446E0008DE
:101D80005C0000204C0000200F2202600C4A136807
:101D900003F003034360136803F0F00383601368E8
:101DA00003F4E053C36012684FF4E05303EAD20235
:101DB00002610448006800F00F00086070470000EE
:101DC00008380240003C02400448054900680968A0
:101DD000044AC1F38221515CC84070475C00002076
:101DE00008380240546E0008044805490068096834
:101DF000044AC1F34231515CC84070475C00002086
:101E000008380240546E0008154810B5006810F0FC
:101E10000C02144813D04110042A0FD0082A0ED106
:101E20000F4C241F2268236802F03F025B0207D593
:101E30002068C0F38810A0FB010106E0084610BD31
:101E40002168C1F38811A1FB00010023FEF7B8F956
:101E50002168C1F30141491C4900B0FBF1F010BDFC
:101E6000083802400024F4002DE9F84F040076D031
:101E70002078DFF838A3CE4DC00749D0DAF800103B
:101E80005046C1F38101012908D00068C0F38100E8
:101E900002280AD1281D0068400206D52868800360
:101EA00036D560680028E2D032E06068B0F5803F47
:101EB00010D0B0F5A02F286810D020F48030286012
:101EC000286820F4802028606068A0B1FFF7C8F976
:101ED00006460CE0286840F48030F4E740F48020A7
:101EE0002860F7E7FFF7BCF9801B642873D82868DF
:101EF0008003F7D50CE0FFF7B3F9064605E000BF15
:101F0000FFF7AEF9801B6428F0D828688003F7D467
:101F10002078DFF8A08280074FF000093ED5DAF87C
:101F20000010504611F00C0F09D00068C0F381007A
:101F300002280BD19D48001F0068400206D4286883
:101F4000800715D5E068012809D111E0E068B8B133
:101F50000120C8F80000FFF783F9064605E020E1FC
:101F6000FFF77EF9801B0228C0D828688007F7D5C4
:101F70002868216920F0F80040EAC10028600DE0DF
:101F8000C8F80090FFF76CF9064604E0FFF768F91F
:101F9000801B02281FD828688007F7D42078000704
:101FA00022D5824E844861696C3671B1012101608D
:101FB000FFF756F9074604E0FFF752F9C01B022865
:101FC00009D830688007F7D50EE0C0F80090FFF719
:101FD00047F9074605E082E0FFF742F9C01B0228F7
:101FE0007DD830688007F7D42078400768D5DFF8BF
:101FF000BCB100270BF1380BDBF80000C0000BD49C
:10200000DBF8001041F08051CBF80010DBF8000045
:10201000012700F080500090684E3068C00510D451
:10202000306840F480703060FFF71AF9009005E0E6
:10203000FFF716F90099401A022850D83068C005F9
:10204000F6D55A4EA068683601280FD005283068AA
:1020500010D020F001003060306820F004003060C3
:10206000A068B8B1FFF7FCF800900FE0306840F0CE
:102070000100F4E740F004003060F7E7FFF7F0F804
:102080000099411A41F28830814266D83068800751
:10209000F4D50EE0FFF7E4F8009007E0FFF7E0F872
:1020A0000099411A41F28830814256D83068800741
:1020B000F4D42FB1DBF8001021F08051CBF80010E0
:1020C000A069D0B3DAF800205146C2F38102022A97
:1020D0004AD00228484607D0C8F8600000E03CE03B
:1020E000FFF7BEF804463BE04746C8F86000FFF73C
:1020F000B7F8064605E000BFFFF7B2F8801B0228DC
:102100002BD828688001F7D4D4E907010843A16AD5
:102110002B4A490802EB0141626A41EA82110843F5
:1021200094F82C1040EA01612048001F0160012052
:102130003866FFF795F8044605E034E0FFF790F8BD
:10214000001B022809D828688001F7D52BE000BFC2
:10215000FFF786F8001B022802D90320BDE8F88F9C
:1021600028688001F4D41EE00128F7D00868E269ED
:1021700000F48001914214D1226A00F03F019142A3
:102180000FD147F6C071626A0140914209D1A26A3B
:1021900000F44031914204D1E16A00F0706088425D
:1021A00001D00120DAE70020D8E70000083802401B
:1021B0000038024000004742800E47420070004055
:1021C0000000FFFFF0B5426E920F0A70426EC2F33C
:1021D00083624A70426EC2F301628A70426E120CD0
:1021E000CA70B0F86420120A0A7190F864204A712B
:1021F000826E120DCA80826EC2F303420A72B0F878
:102200006820C2F3C0324A72B0F86820C2F380324C
:102210008A72B0F86820C2F34032CA72B0F86820FF
:10222000C2F300320A7300264E73426C4FF40075FD
:10223000012462B1012A3AD0026847499163816B57
:1022400041F08051816380F834400120F0BDB0F846
:102250006820C36E9205120D42EA93720A61C26E43
:10226000C2F3C2620A75C26EC2F302624A75C26EDE
:10227000C2F342528A75C26EC2F38242CA75C26EFE
:10228000C2F3C2320A760A69521C42650B7E03F021
:1022900007039B1C9A4042650B7A03F00F0704FA70
:1022A00007F383655B0A5A43C0E917250EE090F8EF
:1022B0006820C36E9206920A42EA13420A610A69D2
:1022C000521C92024265C0E91652056630F86C2F26
:1022D000C2F3803201F8192F0288C2F3C6124A7085
:1022E000027802F07F028A704268D20FCA70426898
:1022F000C2F341720A714268C2F382624A71426853
:10230000C2F383528A714268C2F34052CA710E729C
:102310004268C2F300424A728288C2F3C0328A72B3
:102320008288C2F38032CA728288C2F340320A7352
:102330008288C2F300324A738288C2F381228A7390
:102340008288C2F30122CA730079C0F34600087480
:102350004C740020F0BD0000FF054000426C0A6094
:10236000826C4A60C26C8A60026DCA60426D0A610A
:10237000826D4A61C26D8A61006EC861002070473B
:1023800070B50446B0F8500000250104206801F043
:1023900048F918B1A16B0143A16304E00021206852
:1023A00000F0E4FF0546C5F3432070BD70B504009E
:1023B0000ED094F83400002518B92577204600F097
:1023C0003BF8032084F83400204600F00BF808B1F5
:1023D000012070BDA5632563012084F8340000202E
:1023E00070BD0000FEB50025044676200095CDE9BD
:1023F000015029460B460A46206800F0BAFF08B192
:102400000120FEBD0B4E46F8A05F206800F0C3FF20
:1024100001253560204601F027FB20B9204601F058
:10242000ABFA0028EDD084F83450A16B0143A163CE
:10243000E6E7000000802542F0B587B0044614218D
:102440006846FDF707FF1D492068884233D11C48C4
:102450000024016841F400610160006800F400603C
:10246000059017481438016841F0040101600168C3
:1024700001F004010591016841F008010160006864
:10248000022500F0080005904FF48850CDE90005C2
:1024900002AA03260C2782E8D00069460948FEF705
:1024A000F1FD0420CDE9000502AA694682E8D000CA
:1024B0000548FEF7E7FD07B0F0BD0000002C014025
:1024C0004438024000080240000C02402DE9F04F61
:1024D00087B09B4616460D460446FEF7C1FE0090A7
:1024E0003DB194F83400012807D0A06B40F00050B3
:1024F0000DE0A06B40F0006009E00027A763E16DEC
:1025000006EB0B00884204D9A06B40F00070A0637A
:1025100095E0032084F834002068C762606C0128CD
:1025200000D076024FF40071206800F087FFDFF8DA
:1025300090A1012140B12368C3F838A0A26B0243E7
:10254000A26384F834107AE04FF0FF3001904FEA34
:102550004B200290902003900220CDE904070691C1
:102560008846B94601A9206800F0EAFEBBF1010FD8
:1025700006D9022020633146206800F0DBFF05E029
:10258000C4F830803146206800F0EDFF30B1226899
:10259000C2F838A0A16B0143A1634CE0029E1EE08B
:1025A000406B000413D596B10027206800F0FBFEB5
:1025B00005F8010B010A05F8011B010C05F8021BC7
:1025C000000E361F7F1C05F8010C082FEDD3FEF717
:1025D00047FE0099411A109881421DD2E0B120684F
:1025E000426B40F22A310A42DAD0416BC90509D563
:1025F000BBF1010F06D9616C032903D001F042F849
:102600000028C4D12068416B09071AD5C0F838A04A
:10261000A06B40F0080051E02168C1F838A0A06B21
:1026200040F00040A06384F83480C4F83090032068
:1026300007B0BDE8F08F84F83480C4F830900120F2
:10264000F6E7416B890705D5C0F838A0A06B40F0CC
:10265000020033E0416B89061CD5C0F838A0A06B9E
:1026600040F020002AE000BF00F09DFE05F8010BBD
:10267000010A05F8011B010C05F8021B000E05F804
:10268000010C361FFEF7ECFD0099411A10988142AB
:102690000ED268B12068416B890201D5002EE3D1CA
:1026A000216840F23A50886384F834800020BFE704
:1026B0002168C1F838A0A06B40F00040A063BAE7E1
:1026C000FF0540002DE9FF4F8DB016460D4604462C
:1026D000FEF7C6FD0B903DB194F83400012807D0F9
:1026E000A06B40F000500DE0A06B40F0006009E0EE
:1026F0000027A7631098E16D3044884204D9A06B8D
:1027000040F00070A0638BE0032084F83400206860
:10271000C762606C012800D076024FF40071206817
:1027200000F08CFEDFF864B1012140B12368C3F8EA
:1027300038B0A26B0243A26384F8341070E04FF00B
:10274000FF30039010988946400204909020CDE914
:102750000507CDE90771BA4603A9206800F0F0FD2E
:102760001098012806D9202020633146206800F007
:10277000A3FF05E0102020633146206800F0B5FF7C
:102780005FEA000806D02168C1F838B0A06B40EAC3
:10279000080071E0049E27E0406B40041CD5DEB1C8
:1027A0005FF0000715F8010B009015F8011B361FAC
:1027B00040EA0120009015F8021B40EA0140009019
:1027C00015F8011C40EA016000906946206800F09D
:1027D000FDFD7F1C082FE5D3FEF742FD0B99411A42
:1027E0001A98814220D2F8B12068416B40F21A3227
:1027F0001142D1D0416BC90523D51099012920D9A7
:10280000616C03291DD000F03DFFD0B12268C2F8F1
:1028100038B0A16B0143A16384F83490C4F830A0B0
:10282000012011B0BDE8F08F2168C1F838B0A06B6D
:1028300040EA0800A06384F83490C4F830A0032074
:10284000EFE72068416B090705D5C0F838B0A06BE9
:1028500040F0080010E0416B890705D5C0F838B09A
:10286000A06B40F0020007E0416BC90606D5C0F836
:1028700038B0A06B40F01000A063CDE740F23A51B1
:10288000816384F834900020CBE70000FF0540000E
:1028900010B5401EB0F1807F01D3012010BD4FF074
:1028A000E02460610F21601701F02EFB0020A06181
:1028B00007202061002010BD70B5040004D094F8FA
:1028C0003900002510B106E0012070BD84F83850B1
:1028D000204600F023F8242084F839002068C168DD
:1028E00021F40051C160204601F040FA20680169DE
:1028F00021F4904101612068416921F02A01416180
:102900002068C16841F40051C160E563202084F86B
:10291000390084F83A00002070BD000010B586B080
:10292000044614216846FDF795FC13492068884247
:1029300020D11248016841F400310160006800F4C0
:10294000003005900D481038016841F00101016028
:102950000068694600F0010005900C2000900220FC
:102960000190012002900320039007200490044866
:10297000FEF788FB06B010BD00440040403802401E
:1029800000000240FEE701684A69D24352050FD4B5
:102990006FF480624A61002140F8301F20224273A8
:1029A0008173026942F004020261017301207047E1
:1029B000002070472DE9F84F0446C06A1E46934632
:1029C0000D4621680A6842F480620A60082807D030
:1029D000012805D010F5803F02D0206B112804D1CA
:1029E0002068016841F4807101604FF001195B4675
:1029F000002249462046009600F098F94FF40078EE
:102A000040B120680068C00501D5C4F840800320AB
:102A1000BDE8F88F2069DFF884A0B0F5804F0FD0B3
:102A20000620216800EAD51747F0F0000861334618
:102A30005A460AF10601204600F0ACF958BB03E003
:102A4000E8B240F001001CE02168E8B208613346BA
:102A50005A465146204600F09DF9E0B92068416988
:102A600081690091016841F4807101605B46002238
:102A700049462046009600F059F90028C1D147F098
:102A8000F1002168086133465A465146204600F05D
:102A900081F90028BCD00120BAE700000200010043
:102AA000F8B50446C06A1E460D461746082807D0EA
:102AB000012805D010F5803F02D0206B122804D1E8
:102AC0002068016841F480710160134600224FF0D4
:102AD00001112046009600F029F940B120680068F5
:102AE000C00502D54FF4007020640320F8BD2069B2
:102AF000B0F5804F0ED00620216800EAD51040F0D6
:102B0000F000086133463A460B49204600F042F98E
:102B100078B902E005F0FE0000E0E8B22168086143
:102B2000054933463A46891F204600F033F900280C
:102B3000DCD00120F8BD0000080001002DE9F84FAD
:102B40000446006889460B9D01689846174641F483
:102B5000806101602068016841F480710160009526
:102B60004FF0011B0022594620460A9B00F0DEF878
:102B70004FF4007A40B120680068C00501D5C4F860
:102B800040A00320BDE8F88F216809F0FE0008612D
:102B90002B46284920460A9A00F0FCF8F0BB206832
:102BA0004169806900902A4620460A9900F070F930
:102BB00040B1206C04283AD12068016841F40071CA
:102BC000016034E0FEB2B8F1010F09D02168380A83
:102BD00008612A4620460A9900F05AF90028E8D1EF
:102BE000206806612A4620460A9900F051F900281B
:102BF000DFD12068016841F48071016000950022F6
:102C0000594620460A9B00F091F80028B3D121686C
:102C100009F0FF0040F00100086100E007E02B46EA
:102C2000044920460A9A00F0B5F80028AAD00120ED
:102C3000A8E70000020001002DE9F84304460068FF
:102C40000D46DDE9089701689846164641F4807103
:102C500001604B4600224FF001112046009700F022
:102C600065F848B120680068C00502D54FF40070CF
:102C700020640320BDE8F883216805F0FE000861A8
:102C80003B464A461549204600F084F888B920683A
:102C90004169806900903A464946204600F0F8F8BC
:102CA00048B1206C042804D12068016841F4007107
:102CB00001600120DEE7F5B2B8F1010F09D021680B
:102CC000300A08613A464946204600F0E1F80028FB
:102CD000E7D1206805610020CCE700000200010078
:102CE00070B516460D4604460DE02046FFF74BFE34
:102CF00008B1012070BD681C05D0FEF7B1FA801B39
:102D0000A84207D835B120684069C0434007ECD4D9
:102D1000002070BD002044F8300F20216173A073A3
:102D2000216941F0200121612073E2E72DE9F0479C
:102D30001E4690460D460446C1F30747DDF8209035
:102D400008E0701C06D0FEF78BFAA0EB0900B04239
:102D50000FD876B12068012F18D0806925EA0000CD
:102D60000004000C14D000214145EAD00020BDE849
:102D7000F087002044F8300F20216173A07321698F
:102D800041F02001216120730120F0E74069E5E76F
:102D90000121E9E72DE9F0479A4691460E4604469F
:102DA00000254FF02008C1F3074725E0206840695F
:102DB000C043400514D42068016841F400710160EB
:102DC00021686FF480604861256384F83D8084F851
:102DD0003E50206C40F00400206484F83C501FE01A
:102DE000B9F1FF3F08D0FEF73BFAA0EB0A014945D5
:102DF0000CD8B9F1000F09D02068012F13D08069D9
:102E000026EA00000004000C0BD0CFE744F8305F46
:102E100084F80D80A573206940F02000206125739F
:102E20000120BDE8F0874069EAE72DE9F04100257F
:102E300090460E460446202717E04069C043C0066E
:102E40000CD454F8301B6FF01000486144F810594E
:102E50006777A577206A2062257717E0FEF700FAEA
:102E6000A0EB0800B04208D83EB120684169C943D0
:102E70004906E2D40020BDE8F08144F8305F677372
:102E8000A573206940F02000206125730120F2E73E
:102E900070B516460D4604460DE02046FFF773FD5B
:102EA00008B1012070BD681C05D0FEF7D9F9801B60
:102EB000A84207D835B120684069C0430006ECD469
:102EC000002070BD002044F8300F20216173A073F2
:102ED000216941F0200121612073E2E72DE9F041F1
:102EE00006AC94E8E0101E4CA061A180E280236251
:102EF00025826682A782A4F816C000F053F802204B
:102F000020702820A0701420FEF7AAF8032000F0FB
:102F10001BF90520FEF7A4F8032000F015F90120A5
:102F2000FEF79EF8032000F00FF90120FEF798F855
:102F3000022000F009F90120FEF792F80F2000F0BE
:102F400027F9012000F024F90320FEF789F8282052
:102F500000F01EF9BDE8F0410320FEF781B8000043
:102F60000000002010B5094C0122E188A069FEF79D
:102F700071F90A2000F060F80022E188A069FEF7EC
:102F800069F9BDE810403C2000F056B80000002070
:102F9000020003488188806900D00122FEF75AB9F7
:102FA0000000002000B587B005A96846FEF7ECFEDA
:102FB0000398A8B3FEF708FF5FEA4000FDF7DDFACB
:102FC0009FED191B53EC112BFDF7F6F9FDF7E2FA13
:102FD00017490A6842F002020A6016490A6822F09C
:102FE00010020A600A6822F001020A600A6822F0F0
:102FF00004020A600A6842F008020A600D4928319A
:10300000401E08600920091D08600A49012014318A
:103010000860081F016821F00101016007B000BDD0
:10302000FFE7FEF7D1FEC9E78DEDB5A0F7C6B03ECC
:1030300040380240000400400949401E086008482A
:103040001C38016821F00101016005492C390A682A
:1030500042F001020A600168C907FCD07047000015
:103060002C0400402DE9F84F0209364C02F0080309
:1030700002F0040B217802F0020902F0010700F0CF
:10308000080A00F0040600F0020500F001080093B1
:1030900001292FD0022952D13A46218A206AFEF70F
:1030A000D9F84A46618A206AFEF7D4F85A46A18ABE
:1030B000206AFEF7CFF8E18A009A206AFEF7CAF884
:1030C000FFF750FF4246218A206AFEF7C3F82A46DE
:1030D000618A206AFEF7BEF83246A18A206AFEF7AE
:1030E000B9F85246E18A206AFEF7B4F8BDE8F84F15
:1030F000FFF738BF42462189E069FEF7ABF82A4660
:103100006189E069FEF7A6F83246A189E069FEF719
:10311000A1F85246E189E069FEF79CF83A46218A17
:10312000206AFEF797F84A46618A206AFEF792F80D
:103130005A46A18A206AFEF78DF8009AD2E7BDE8C8
:10314000F88F00000000002070B505460020FFF752
:103150001FFF0E4C05F00102218A206AFEF77AF863
:1031600005F00202618A206AFEF774F805F0040295
:10317000A18A206AFEF76EF805F00802E18A206A4B
:10318000FEF768F8BDE87040FFF7ECBE00000020D5
:1031900010B504460020FFF7FBFE2046BDE81040B6
:1031A000FFF760BF7FB50024124800940194029499
:1031B0000F49039401604FF48031C0E901140461A8
:1031C000047680F820400C49C0E90A140125C56145
:1031D000C46080F830404561FDF71FFE0B20CDE94B
:1031E0000005694602940348FDF76CFD7FBD0000B1
:1031F000002001406C0000200100000F10B50449C0
:103200000448FDF73BFD0249491E087010BD00004F
:103210003E000020306E00082DE9F04186B01421F8
:103220006846FDF717F82A480024016841F00401B8
:103230000160016801F004010591016841F001019C
:103240000160016801F001010591016841F002018E
:103250000160016801F002010591016841F0080177
:103260000160016801F008010591016841F0100159
:1032700001600068174F00F010004FF47C56059075
:10328000002231463846FDF7E5FFDFF84C8000228A
:1032900003214046FDF7DEFF0325CDE900546946D2
:1032A0000E480294FDF7EEFE00960126CDE901647A
:1032B000694638460394FDF7E5FE0095CDE90164C3
:1032C000694640460394FDF7DDFE06B0BDE8F08197
:1032D00030380240000C0240001002400000024062
:1032E000FEE77047704700001FB5144900900120A9
:1032F00001900290002003900F48086069460F4833
:10330000FDF7E0FC78B90D48FDF734FE58B94FF4ED
:103310007A710A48FDF7DCFD0848FDF779FDA0F554
:103320000071013902D0002004B010BD0348FDF740
:1033300071FD80B2F8E70000002001406C00002021
:103340000A6842624A688262D1E902231A43D1E9DB
:1033500004310B43C16A1A4321F0F7011143C162E2
:1033600000207047006800F003007047084440697F
:10337000704770B50DF1100C11439CE870002343A9
:10338000194329434268314347F6FF639A430A438E
:103390004260002070BD10B5032101600220FDF7DE
:1033A0005FFE002010BDD0F8800070470A68826080
:1033B000D1E901231A43D1E903310B43C1681A4310
:1033C0006FF30B011143C160002070470968C0F81A
:1033D00080100020704710B586B004463720CDE934
:1033E000001040200290002003904FF48060049071
:1033F00069462046FFF7DAFF41F28832372120463E
:1034000000F08CF906B010BD10B504460A4886B02D
:1034100001432920CDE900104020029000200390B4
:103420004FF48060049069462046FFF7BFFF2046B6
:1034300000F02CFA06B010BD0000108010B586B068
:1034400004461020CDE90010402002900020039097
:103450004FF48060049069462046FFF7A7FF41F2D1
:1034600088321021204600F059F906B010BD000046
:1034700030B585B000240546009401944FF4806077
:103480000294CDE9034069462846FFF78FFF0B48B9
:103490004FF4FA510068B0FBF1F041F28831484333
:1034A000401E03D24FF0004005B030BD696B0906E5
:1034B000F6D5C520A8632046F6E700005C00002092
:1034C00070B585B004464FF4D570009001A908206E
:1034D0004025002681E86100C0010490694620462D
:1034E000FFF764FF12484FF4FA510068B0FBF1F0A7
:1034F00041F288314843401E03D24FF0004005B0EE
:1035000070BD616B11F0450FF5D00905F3D4606B08
:10351000400701D5042003E0606BC00702D0012002
:10352000A063ECE7606B400600D5A5633046E6E794
:103530005C00002010B586B004461220CDE90010D2
:1035400040200290002003904FF480600490694670
:103550002046FFF72BFF41F288321221204600F06F
:10356000DDF806B010BD10B586B004461120CDE9D7
:10357000001040200290002003904FF480600490DF
:1035800069462046FFF712FF41F28832112120469A
:1035900000F0C4F806B010BD10B586B00446072090
:1035A000CDE9002040200290002003904FF480607D
:1035B000049069462046FFF7F9FE41F28832072160
:1035C000204600F0ABF806B010BD10B586B004463A
:1035D00000210220CDE90010C020CDE902014FF406
:1035E0008060049069462046FFF7E0FE204600F028
:1035F00025F906B010BD10B586B004460920CDE906
:103600000010C0200290002003904FF480600490CE
:1036100069462046FFF7CAFE204600F00FF906B0C3
:1036200010BD10B586B004460D20CDE90010402035
:103630000290002003904FF4806004906946204679
:10364000FFF7B4FE41F288320D21204600F066F803
:1036500006B010BD30B585B00C46054600210320EC
:10366000CDE900104020CDE9020100010490694637
:103670002846FFF79BFE22460321284600F028F942
:1036800005B030BD10B586B0044600210C20CDE950
:1036900000104020CDE90201000104906946204657
:1036A000FFF784FE034A0C21204600F037F806B0ED
:1036B00010BD000000E1F50510B586B004461920E4
:1036C000CDE9001040200290002003904FF480606C
:1036D000049069462046FFF769FE41F288321921BD
:1036E000204600F01BF806B010BD10B586B00446A9
:1036F0001820CDE9001040200290002003904FF4E4
:103700008060049069462046FFF750FE41F28832FF
:103710001821204600F002F806B010BD454B10B548
:103720001B684FF4FA54B3FBF4F353435B1E02D20D
:103730004FF0004010BD426B12F0450FF6D012055D
:10374000F4D4426B520703D504218163084610BDAF
:10375000426BD20702D00121816305E0C52282635A
:103760000269D2B28A4201D0012010BD0021FFF7C8
:10377000FDFD3149084201D1002010BD002802DAC8
:103780004FF0007010BD410001D5402010BD8100F8
:1037900001D5802010BDC10002D54FF4807010BD4E
:1037A000010102D54FF4007010BD410102D54FF464
:1037B000806010BDC10102D54FF4006010BD010250
:1037C00002D54FF4805010BD410202D54FF4005095
:1037D00010BD810202D54FF4804010BDC10202D558
:1037E0004FF4004010BD410302D54FF4003010BD2E
:1037F000810302D54FF4802010BDC10302D54FF4E0
:10380000002010BD010402D54FF4801010BD41040A
:1038100002D54FF4001010BD810402D54FF4800092
:1038200010BD000702D54FF4000010BD4FF48030EA
:1038300010BD00005C00002008E0FFFD12494FF4BD
:10384000FA520968B1FBF2F141F288325143491E44
:1038500002D24FF000407047426B12F0450FF6D095
:103860001205F4D4416B490703D50421816308464E
:103870007047416BC90703D0012181630846704737
:10388000C5218163002070475C0000200F494FF480
:10389000FA520968B1FBF2F141F288325143491EF4
:1038A00002D24FF000407047426B12F0450FF6D045
:1038B0001205F4D4416B490703D5042181630846FE
:1038C0007047C52181630020704700005C00002024
:1038D00030B5204B4FF4FA541B68B3FBF4F341F2BC
:1038E000883463435B1E02D24FF0004030BD446B0E
:1038F00014F0450FF6D02405F4D4436B5B0703D5D1
:1039000004218163084630BD436BDB0702D00121EF
:10391000816303E00369DBB28B4201D0012030BD3B
:10392000C52181630021FFF721FD10F4604F04D011
:10393000410406D54FF4005030BD000C108000202B
:1039400030BD000402D54FF4805030BD4FF48030BC
:1039500030BD00005C00002010B5064C0120207036
:10396000FDF742F918B9207820F001002070207886
:1039700010BD00003C00002010B590B004460120AE
:10398000ADF838002068FFF7EDFC002854D0606CDB
:10399000032842D02068FFF718FE00284AD10021F2
:1039A0002068FFF7E3FC606704212068FFF7DEFC76
:1039B000A06708212068FFF7D9FCE0670C21206888
:1039C000FFF7D4FCC4F88000606C032825D00EA952
:1039D0002068FFF73FFE00282CD1606C03281CD024
:1039E000BDF83800206501042068FFF704FE0028B8
:1039F00020D100212068FFF7B9FC6066042120680F
:103A0000FFF7B4FCA06608212068FFF7AFFCE06672
:103A10000C212068FFF7AAFC206704212068FFF72B
:103A2000A5FC000DE06403A92046FEF7CBFB30B1F6
:103A30004FF0805010B010BD4FF08060FAE7B4F83E
:103A40005000002302042068FFF7A6FD0028F1D1F2
:103A500004F1100007C88DE8070094E80F00FFF795
:103A600088FC0020E6E700002DE9F84F0026044618
:103A700000963546B0460068FFF7FAFC002827D1CB
:103A80002068FFF71DFD4FF0805B4FF001094FF6F6
:103A9000FF7748B1A6642068FFF7EAFC002817D139
:103AA000A06C012802D020E0C4F8489000212068D2
:103AB000FFF791FC58B918E000212068FFF78BFC54
:103AC000002805D151462068FFF79EFC10B15846EA
:103AD000BDE8F88F00212068FFF748FC05464FEA53
:103AE000D0780098401C009002E0DFF82CA00098ED
:103AF000B84202D2B8F1000FDED00098B84202D32B
:103B00004FF08070E4E7680002D5C4F8449000E00C
:103B100066640020DCE70000000010C170B5064CB0
:103B2000054601202070FDF76BF818B92846FFF70D
:103B300013FF2070207870BD3C00002010B51248A3
:103B400088B014460078C00702D0032008B010BD2A
:103B5000C1B1012905D0022908D003290CD00420C5
:103B6000F4E76846FDF73AF806980AE06846FDF77C
:103B700035F80798208005E06846FDF72FF807988C
:103B8000400A20600020E1E73C00002070B51D469F
:103B9000164608460124A31E2A463146FDF74CF876
:103BA00028B900BFFDF720F80028FBD100242046EB
:103BB00070BDFFF7D1BE000070B51D461646084621
:103BC0000124A31E2A463146FDF746F828B900BF56
:103BD000FDF70AF80028FBD10024204670BD000044
:103BE0001CB524208DF8040000208DF80500642405
:103BF000022301AA882106480094FDF7EBFC062366
:103C0000044A882102480094FDF7F4FB1CBD000023
:103C1000B4000020420000200E4810B5C1784FF6D5
:103C2000FF72007902EA0121084480B2FCF7A5FC8A
:103C30009FED091B53EC112BFCF7BEFB9FED081BFE
:103C400053EC112BFCF72AFCFCF7D0FC00EE100A19
:103C500010BD00004200002000000000000059409C
:103C600000000000E0FFEF40104810B501784FF66B
:103C7000FF72407802EA0121084480B2FCF77DFC23
:103C80009FED0B1B53EC112BFCF796FB9FED0A1BD2
:103C900053EC112BFCF702FCFCF7A8FC00EE100A19
:103CA000DFED070A30EE600A10BD00004200002080
:103CB0000000000000E0654000000000E0FFEF4071
:103CC000000034427047FDF737BF000030B593B0B5
:103CD00030216846FCF7BEFA14210CA8FCF7BAFAAA
:103CE00019480025016841F080510160006800F02A
:103CF000805011901548016841F4804101600068CE
:103D0000022400F4804011900120039010200490C0
:103D1000009406940820CDE90750A820CDE90904B5
:103D200007200B906846FEF79FF80CA90F2081E84A
:103D300031004FF4A0500F90E002109005210CA824
:103D4000FDF788FF13B030BD4038024000700040DE
:103D50000548016841F47001016003494FF00060BB
:103D6000803908607047000088ED00E02DE9F041DF
:103D7000044600680169E26821F440511143016181
:103D80002169A068E2690843616911430843216819
:103D9000CA6849F20C639A430243CA6020684169C9
:103DA000A26921F4407111434161E069192764253A
:103DB0003226B0F5004F354A354920684FF00008EB
:103DC00006D0884201D0904236D1FEF70DF835E09A
:103DD000884201D0904202D1FEF706F801E0FDF7DB
:103DE000F3FF61684A18A0FB070148EB0803FCF7E2
:103DF000E7F90146B0FBF5F00201B1FBF5F06FF019
:103E00001803584301EB800006EBC000B0FBF5F04F
:103E100000F0F80002EB4002B1FBF5F0584301EB73
:103E2000800006EBC000B0FBF5F000F00700216851
:103E300010448860BDE8F081FDF7C6FF61688B0F14
:103E40008A00A0FB0701FCF7BBF90146B0FBF5F0C7
:103E50006FF01802504301EB800006EB0010B0FB3E
:103E6000F5F000F0F002B1FBF5F002EB0012B1FB4F
:103E7000F5F06FF01803584301EB800006EB0010DB
:103E8000B0FBF5F000F00F00D1E700000014014096
:103E90000010014007E003681B06FCD54260491C86
:103EA00002681206FCD50A78002AF4D17047FEE7B2
:103EB0000FB4084B10B504A902AA039801F004F846
:103EC000044602A9002001F096FB204610BC5DF8D4
:103ED00014FB0000F755000803B401984100009856
:103EE00050EAC12018BF04204A0D18BF40F001005D
:103EF00040F2FF72B2EB515F08BF40F002000128B0
:103F000008BF052002B070470907090E002804DB2E
:103F100000F1E02080F80014704700F00F0000F17D
:103F2000E02080F8141D70472DE9F04D2DED040BB5
:103F30002DED0E8B96B0DDE92550279CDDF890A085
:103F400025F0004624F00048BAF1000F14BF01210B
:103F5000002101EB4502FC4953184A1093422AD331
:103F6000002814BF0123002303EB44030B44F7494B
:103F70008B4220D358EA00019FEDF59B76D0DFF805
:103F8000D8B35D4503D1BAF1000F05D188E0BAF18D
:103F9000000F08BF002100D0012101EB450111F500
:103FA000001F08D8002814BF0121002101EB4401A3
:103FB00011F5001F0BD99DED261B9DED240B16B0AE
:103FC000BDEC0E8B04B0BDE8F04D00F069BE0027DB
:103FD000002DBCBFE149884521DAE1498845A8BFE9
:103FE00002271CDAC3451ADCDE4901EB28511429EB
:103FF00008DDC1F1340220FA02F101FA02F2824234
:104000000DD108E058B9C1F1140228FA02F101FA01
:1040100002F2424503D101F00101C1F1020756EA63
:104020000A0124D1002C22DA002D18BF022F01D062
:10403000012F0AD0022000F07FFE16B0BDEC0E8BDF
:1040400004B0BDE8F04D00F013BE022000F074FE95
:1040500000F00EFE51EC100B81F0004141EC100B12
:1040600016B0BDEC0E8B04B0BDE8F08D18E09FEDEE
:10407000BEAB9FEDBF8B002871D1B848804522D1DF
:1040800005F1804010F5801008BFBAF1000F07D08D
:10409000B3450ADC002CA8BF9DED260BE0DA0DE04D
:1040A000B0EE490AF0EE690ADAE7002C06DA9DED77
:1040B000260B51EC100B81F000416FE0AE487844C4
:1040C00090ED000BCCE7D8454DD1002C48DA2EB14D
:1040D00086423AD1BAF1000F42D126E0BAF1000F80
:1040E00013D0022000F028FE00F0F6FD8DED020B4B
:1040F0009DED240B8DED000B10EE900A039961F3FA
:104100001E0003909DED020BAAE78DED02AB9DED25
:10411000240B1AEE901A10EE900A8DED000B61F34D
:104120001E0003909DED020B9AE78DED028B9DED35
:10413000240B18EE901A10EE900A8DED000B61F32F
:104140001E0003909DED020B8AE709DA9DED240B1A
:1041500051EC190B53EC102BFCF7A0F91EE020E0FA
:104160009DED240B7CE786421BDAB4F1804F0DD025
:10417000A4F10050B0F1FF5013D1002D11DB9DEDE3
:10418000240B51EC100B02F073FD07E09DED240BA6
:1041900053EC102B51EC100B00F0C2BC41EC100B97
:1041A0005EE79DED240B51EC100B01F07DFFBAF1A1
:1041B000000FCDE90E0142D19FED710B46B3A6F180
:1041C000E040B0F17F600CD05E4538D1002D00DAC0
:1041D000A7B3022F0CBF01204FF0FF30FCF714FBF8
:1041E000DCE7002D01DD002C0DDA002D01DD002CB7
:1041F0001FDB002D16DA002C14DB012F08BF9FED0A
:10420000620B3FF42DAFB0EE4A0AF0EE6A0A27E7E0
:10421000022F18BF002D0CD0012F0AD1002DFFF660
:104220001FAF06E0002DB8BF002C08DA012F3FF4C5
:1042300017AFB0EE480AF0EE680A11E71BE0012064
:1042400000EBE57050EA070115D0791EB0EE498AFF
:10425000F0EE698A084308BF9FED4D8B4E4800255C
:10426000804570DD4D494E48884514DDB0420DDB78
:10427000002C19DB2FE0012000F05EFD16B0BDEC34
:104280000E8B04B0BDE8F04D00F016BDB34502DC66
:10429000002C09DC1FE0864202DA002C1BDA03E066
:1042A0005E452BDD002C16DD022000F045FD00F000
:1042B00013FD8DED020B53EC1A2B51EC180BFCF790
:1042C0007BF8CDE900010399019861F31E0003908A
:1042D0009DED020BC4E6022000F02EFD00F00CFD67
:1042E00010EE901A18EE900A8DED020B8DED008BFA
:1042F00061F31E0003909DED020BB1E69DED0E0BE8
:1043000053EC192B51EC100BFCF750F89FED260BDA
:10431000CDE9080153EC102B9DED080B51EC100B6F
:10432000FCF74AF89FED221B53EC112BFCF741F8E8
:104330009DED081B53EC112BFCF73EF89FED1E1B67
:1043400053EC112B3CE08CE0FFFF1F00FFFF0F0040
:10435000000000000000F03F0000F03F0000F07F90
:104360000000404301FCFFFF000000000000F07F60
:104370000000000000000000BE2E00000000000051
:104380000000000000000080000000000000F0FFBE
:10439000000000000000F0BF0000E0410000F0431A
:1043A000FFFFEF3F00000000000000000000D03FD2
:1043B000555555555555D53F000000000000E03FCC
:1043C000FBF7F7FF9DED080B41EC1A0B53EC102B9C
:1043D00051EC100BFBF7F0FF53EC1A2BFBF7ECFF43
:1043E00041EC1A0B9FEDFE0B53EC102B9DED080BCF
:1043F00051EC100BFBF7E0FF41EC1B0B9FEDFA0BB0
:1044000051EC1A0B53EC102BFBF7D6FF41EC1A0BB7
:104410009FEDF70B53EC102B9DED080B51EC100B9F
:10442000FBF7CAFF53EC1A2BFBF7C0FF41EC1A0B4A
:1044300051EC1B0B53EC1A2BFBF717FF0690CDE941
:1044400006519DED060B53EC1B2B51EC100BFBF7AB
:10445000ADFF53EC1A2BFBF7ACFF41EC100B00F057
:10446000A1B90020B6F5801F0EDA9FEDE30B53ECE7
:10447000102B9DED0E0B51EC100BFBF79DFFCDE9C2
:104480000E016FF034000E4600EB2650A0F2FF370D
:10449000C6F31300DA4940F07F6646F04056884282
:1044A000D8BF002408DDD7498142C8BF012403DCFE
:1044B0000024A6F580167F1CD348784400EBC40086
:1044C0000F9690ED00CB9DED0E0B53EC1C2B51EC99
:1044D000100BFBF76BFF9DED0E0B41EC1B0B53EC30
:1044E0001C2B51EC100BFBF7C0FE41EC100B51ECF8
:1044F000190B53EC102BFBF7D1FF41EC1D0B51ECCA
:104500001B0B53EC1D2BFBF757FF41EC1A0BBF485D
:104510008DED10AB7844109590ED000B4FF00050EE
:1045200040EA660000EB84408DED080B00F50020AA
:1045300009909DED080B53EC1C2B51EC100BFBF775
:1045400035FF9DED0E1B53EC112BFBF732FF41ECB9
:10455000100B53EC102B9DED100B51EC100BFBF7D7
:104560002BFF9DED080B41EC1C0B53EC102B9DED2C
:10457000100B51EC100BFBF71FFF53EC1B2BFBF741
:1045800018FF53EC1C2BFBF711FF53EC1D2BFBF713
:1045900013FF41EC1C0B53EC1A2B51EC1A0BFBF7DD
:1045A0000BFF41EC1B0B9A480621B0EE4B0AF0EED4
:1045B0006B0A784400F0E0FAB0EE401AF0EE601AB0
:1045C000B0EE41DAF0EE61DA53EC1B2B51EC1B0B31
:1045D000FBF7F2FE53EC1D2BFBF7EEFE9DED100BEF
:1045E00041EC1B0B53EC1A2B51EC100BFBF73DFE6F
:1045F00053EC1C2BFBF7E0FE53EC1B2BFBF735FEBB
:104600009DED100B41EC1B0B53EC102B51EC100BE0
:10461000FBF7D2FE41EC1D0B9FED7FEB53EC1E2B05
:10462000FBF723FE53EC1B2BFBF71FFE0890CDE995
:1046300008519DED080B53EC1E2B51EC100BFBF7B2
:10464000B5FE53EC1D2BFBF7B1FE53EC1B2BFBF718
:10465000B0FE9DED080B41EC1D0B53EC102B9DEDB6
:10466000100B51EC100BFBF7A7FE41EC1B0B53ECAE
:104670001A2B51EC1D0BFBF79FFE9DED080B41EC37
:104680001A0B53EC102B51EC1C0BFBF795FE53EC63
:104690001A2BFBF7EAFD41EC1A0B51EC1B0B53EC08
:1046A0001A2BFBF7E2FD0C90CDE90C519DED0C0BA4
:1046B00053EC1B2B51EC100BFBF778FE53EC1A2B31
:1046C000FBF777FE41EC1B0B9FED550B53EC102BCA
:1046D0009DED0C0B51EC100BFBF76EFE41EC1A0B31
:1046E0009FED510B51EC1B0B53EC102BFBF764FEB1
:1046F00041EC1B0B9FED4E0B53EC102B9DED0C0B67
:1047000051EC100BFBF758FE53EC1B2BFBF7ADFDE8
:1047100041EC100B4848784400EBC40090ED001BBE
:1047200051EC100B53EC112BFBF79FFD41EC1B0BD5
:104730003846FCF769F8CDE9080153EC1B2B51EC26
:104740001A0BFBF792FD41EC100B3C48784400EB50
:10475000C40090ED00CB51EC100B53EC1C2BFBF77D
:1047600084FD9DED081B53EC112BFBF77EFD06909D
:10477000CDE906519DED080B53EC102B9DED060B7A
:1047800051EC100BFBF712FE53EC1C2BFBF70EFE4B
:1047900053EC1A2BFBF70AFE53EC1B2BFBF709FE1D
:1047A00041EC100B9DED261B53EC102B8DED001BE7
:1047B00000959DED260B51EC100BFBF7FDFD9DEDDB
:1047C000000B41EC1A0B53EC102B9DED260B51EC1A
:1047D000100BFBF7EBFD9DED061B53EC112B2FE0AF
:1047E000000000604715F73FFE822B654715F73F35
:1047F00044DF5DF80BAE543E000000000000404373
:104800008E9803007AB60B003A2A0000682A00004E
:1048100072290000000000000000000000000840B5
:10482000000000E009C7EE3FFD033ADC09C7EE3F98
:10483000F5015B14E02F3EBEFE270000B827000004
:10484000FBF7BAFD53EC1A2BFBF70FFD9DED060BA2
:1048500041EC1A0B53EC102B9DED000B51EC100B9F
:10486000FBF7AAFDCDE90C019DED0C0B51EC1A0BE9
:1048700053EC102BFBF7F9FCCDE902010C46AA49D9
:104880008C422FDB611A084318D19DED0C0B53ECC1
:10489000102B9DED020B51EC100BFBF787FD41EC4B
:1048A0001B0B9FEDA30B51EC1A0B53EC102BFBF7DA
:1048B000DCFC53EC1B2BFBF7D1FF2DD2022000F0C8
:1048C0003BFA00F009FA10EE901A18EE900A8DEDFE
:1048D000020B8DED008B61F31E0003909DED020B2A
:1048E000FFF7BEBB944A24F00041914214D3934990
:1048F000214408437FF4EFAC9DED0C0B53EC102BDF
:104900009DED020B51EC100BFBF750FD53EC1A2BF5
:10491000FBF7A4FF7FF6DFAC24F000408849894A0A
:10492000002601EB205182422BDA481C4FF4801103
:1049300021FA00F02044844AC0F30A517A44A1F2DB
:10494000FF3192ED000B814A8DED080BCA4020EA41
:104950000202C0F3130040F48010C1F1140120FAE8
:1049600001F60992002CB8BF76429DED080B53EC7E
:10497000102B9DED0C0B51EC100BFBF717FDCDE947
:104980000C019DED0C0B51EC1A0B53EC102BFBF7AB
:104990006CFC9FED6F0B0890CDE9085153EC102B88
:1049A0009DED080B51EC100BFBF706FD41EC1B0BCA
:1049B0009FED690B53EC102B9DED080B51EC100B88
:1049C000FBF7FAFC9DED0C0B41EC1C0B53EC102B90
:1049D0009DED080B51EC100BFBF7E8FC53EC1A2B88
:1049E000FBF7E7FC9FED5E1B53EC112BFBF7E4FCA0
:1049F00053EC1C2BFBF739FC41EC1A0B51EC1B0B55
:104A000053EC1A2BFBF731FCCDE902019DED020BB3
:104A100053EC1B2B51EC100BFBF7C8FC53EC1A2B7F
:104A2000FBF7C7FC9DED020B41EC1A0B53EC102B6E
:104A300051EC100BFBF7C0FCCDE908014A489DED95
:104A4000080B0521784400F097F89DED081B51EC08
:104A5000100B53EC112BFBF7AFFC9DED021B53EC3D
:104A6000112BFBF7A6FCCDE906019DED020B53ECE3
:104A70001A2B51EC100BFBF79FFC53EC1A2BFBF796
:104A8000F4FB9FED3B0B41EC1A0B53EC102B9DED0F
:104A9000060B51EC100BFBF789FC9DED060B41EC6E
:104AA0001B0B53EC102B9DED020B51EC100BFBF785
:104AB00083FC53EC1B2BFBF7F1FC53EC1A2BFBF79D
:104AC00075FC9DED021B53EC112BFBF76FFC53ECB7
:104AD000192BFBF76EFCCDE9020101EB0650011525
:104AE0000029C8BF039015DC9DED020B324651EC46
:104AF000100BFBF772FEFFF7EFF9042808BF00F078
:104B0000FBF832469DED020B51EC100BFBF765FEF6
:104B1000CDE902019DED020B51EC180B53EC102B6B
:104B2000FBF74AFCFFF73ABB000090400000000092
:104B3000FE822B654715973C00CC904000346F3FB8
:104B400001FCFFFF0000E03F40260000FFFF0F00D8
:104B500000000000432EE63F396CA80C615C20BECB
:104B6000EF39FAFE422EE63F10250000000000005B
:104B7000000000000000004070B504462DED028BDF
:104B80004D1E00EBC500B0EE408AF0EE608A90ED5D
:104B9000000B35F0060017D053EC182B51EC100B1E
:104BA000FBF70AFC41EC100B6D1E04EBC50090ED09
:104BB000001B51EC100B53EC112BFBF756FB41EC97
:104BC000100B35F00600E7D1022D36D0042D1CD095
:104BD000062D1CBFBDEC028B70BD53EC182B51ECA5
:104BE000100BFBF7E9FB94ED0A1B53EC112BFBF7C1
:104BF0003CFB53EC182BFBF7DFFB94ED081B53EC4D
:104C0000112BFBF732FB41EC100B53EC182B51EC42
:104C1000100BFBF7D1FB94ED061B53EC112BFBF7AC
:104C200024FB53EC182BFBF7C7FB94ED040B53EC60
:104C3000102BFBF71AFB41EC100B53EC182B51EC2B
:104C4000100BFBF7B9FB94ED021B53EC112BFBF798
:104C50000CFB53EC182BFBF7AFFB94ED001B53EC54
:104C6000112BFBF702FBBDEC028B41EC100B70BD6E
:104C70009FED070B10B553EC102B9FED070B51EC7C
:104C8000100BFBF70BFC41EC100B10BD00000000FB
:104C90000000000000000000000000000000F03FE5
:104CA00010B553EC112B51EC100BFBF7DEFA41EC75
:104CB000100B10BD000000009FED050B10B553EC6C
:104CC000102B51EC100BFBF7E9FB41EC100B10BD66
:104CD00000000000000000009FED050B10B553EC34
:104CE000102B51EC100BFBF767FB41EC100B10BDC8
:104CF00000000000000000709FED050B10B553ECA4
:104D0000102B51EC100BFBF757FB41EC100B10BDB7
:104D1000000000000000001002E008C8121F08C1D7
:104D2000002AFAD170477047002001E001C1121F2C
:104D3000002AFBD17047000001490860704700005D
:104D4000680000202DE9FF5F82B00021DDE904301A
:104D5000020DDDF840B0034318D044F61050A2F223
:104D6000FF3242431514119801281FD0A5EB0B0008
:104D7000401C5FEA000A4FF000064E4FDFF8389102
:104D8000B046504615D5CAF1000413E0119801242D
:104D90004AA3012801D16FEA0B010298119AC0E9D8
:104DA0000031C0E9024206B0BDE8F09FCBF100003F
:104DB000DFE704460021404A491842EB0450CDE9A0
:104DC000001012E0E00707D032463B464046494615
:104DD000FBF7F2FA8046894632463B4610461946B2
:104DE000FBF7EAFA06460F466410002CEAD1DDE92B
:104DF0000401DDE90023BAF1000F06DAFBF7DCFA63
:104E000042464B46FBF7D8FA05E0FBF747FB424624
:104E10004B46FBF743FB04460E460022284BFBF7AC
:104E20001DFD03D84FF0FF30014607E00022254B5F
:104E300020463146FBF719FAFBF7F7FC102409E08E
:104E4000002C0ADB0A220023FBF7BAF9039B30325D
:104E50001A55641E50EA0102F2D1641C039AC4F18F
:104E600011031444119A012A03D0012208430DD1E1
:104E70000AE0084304D000204FF0110B119072E7B4
:104E8000A3EB0B056D1E0DE05B4504DD4FF000024A
:104E900005F1010504E003DA4FF00002A5F1010578
:104EA000002AECD002981199C0E90231C0E900450E
:104EB00079E70000000014400000F03F30000000DF
:104EC0000000F0430000E03F2DE9FF4F95B09B4606
:104ED0008946064600250FE2252877D1002427467B
:104EE000F84A0121059400E0044316F8013F203BF5
:104EF00001FA03F01042F7D130782A2811D06FF070
:104F00002F033078A0F13002092A16D8059A44F010
:104F1000020402EB820203EB42021044761C05906D
:104F2000EFE759F8042B0592002A03DA504244F4C3
:104F30000054059044F00204761C30782E2816D1D7
:104F400016F8010F44F004042A280DD06FF02F0248
:104F50003078A0F13003092B09D807EB870302EB67
:104F60004303C718761CF3E759F8047B761C3078A6
:104F70006C280FD006DC4C2817D068280DD06A2882
:104F800014D104E0742810D07A280FD10DE044F435
:104F900000140AE044F4801401E044F440147278F0
:104FA000824202D104F58014761C761C3078662883
:104FB0000BD013DC582877D009DC002875D04528A1
:104FC000F6D04628F4D047281AD19DE118E063288E
:104FD00035D0642879D0652812D195E1702873D036
:104FE00008DC6728F1D069286FD06E280DD06F28B3
:104FF00006D1B5E073282CD0752875D0782874D0E8
:105000005A46179990476D1C75E1C4F30250022867
:1050100009D003280DD0D9F8001004280DD00D6058
:1050200009F1040967E1D9F80010EA17C1E9005253
:10503000F6E7D9F800100D80F2E70D70F0E719F8E7
:10504000041B8DF8001000208DF80100EA460120B5
:1050500003E059F804AB4FF0FF3061074FF0000157
:1050600002D40DE008F101018846B9420FDA80450B
:10507000F8DB1AF808100029F4D108E008F1010162
:1050800088468142FADB1AF808100029F6D1059803
:105090005B46A0EB080721463846179A00F094FAC1
:1050A000284400EB080507E04DE029E10DE01AF87F
:1050B000010B5A4617999047B8F10108F7D25B46A1
:1050C00021463846179A13E142E00A220092C4F3BF
:1050D00002524FF0000A022A08D059F804CB032AE2
:1050E0004FEAEC710AD00DE029E02AE009F107014E
:1050F00021F00702F2E802C1914609E00FFA8CFCA8
:105100004FEAEC71042A03D14FFA8CFC4FEAEC71A0
:10511000002907DA0A460021DCF1000C61EB0201EC
:105120002D2202E0220504D52B228DF80420012235
:1051300003E0E20701D02022F7E7904659E00A2178
:1051400002E010220DE010214FF0000A00910BE068
:1051500010224FF0000A44F004040827009203E0F4
:1051600008224FF0000A0092C4F30252022A05D02E
:1051700059F804CB0021032A08D009E009F10701FE
:1051800021F00702F2E802C1914605E01FFA8CFC0B
:10519000042A01D10CF0FF0C4FF00008220728D59B
:1051A000702806D0009B83F0100353EA0A0305D051
:1051B0000EE040228DF80420012208E05CEA0102A2
:1051C00006D030228DF804208DF80500022290468A
:1051D000009B83F0080353EA0A030AD15CEA010248
:1051E00001D1620705D530228DF804204FF0010867
:1051F0007F1E582804D034A003900EA802900DE022
:1052000036A0F9E753466046009AFAF7D9FF84467C
:105210000398825C0298401E029002705CEA0100D2
:10522000F0D1029806A9081A00F1200A600702D5F9
:1052300024F4803400E00127574502DDA7EB0A0083
:1052400000E0002000EB0A01009005984144401A5C
:105250000590E00306D45B462146179A059800F0B6
:10526000B3F90544002706E001A85A46C05D179926
:1052700090476D1C7F1C4745F6DBE0030CD55B4671
:105280002146179A059800F09FF9054404E0302064
:105290005A46179990476D1C0099481E00900029A6
:1052A000F5DC08E0029802995A460078491C029100
:1052B000179990476D1CBAF10001AAF1010AF1DCBF
:1052C00065E10000092801003031323334353637CA
:1052D0003839616263646566000000003031323342
:1052E00034353637383941424344454600000000E2
:1052F00000F058F90544761C307800287FF4ECADB6
:1053000019B02846BDE8F08F620700D4062709F1DE
:10531000070222F0070CFCE80223E14603F00048F4
:105320005FEA080C02D00FF2702C0DE05FEA045C1B
:1053300002D50FF2682C07E05FEAC47C02D00FF2BE
:10534000602C01E0AFF2700C4FF0FF3823F0004307
:10535000CDF850C065280CD006DC452809D0462879
:105360001DD047283DD13DE0662818D067287ED162
:1053700038E00021112F01DB112000E0781CCDE97D
:10538000000106A90EA8FFF7DDFCDDE90F010E9A6A
:1053900003910021009207F1010A04914DE04FF0C2
:1053A00000400097CDE9011006A90EA8FFF7CAFC3E
:1053B000DDE90F0203920E9B11990022DDF80CA08B
:1053C0000093049211B9791C00EB010AB7EB0A00B3
:1053D00004D4C0F1FF3007F1010A0490AAEB0700E2
:1053E000019044E0012F00DA01270021112F01DD97
:1053F000112000E03846CDE9000106A90EA8FFF70C
:10540000A1FCDDE90F010E9A0391002104910092A5
:10541000BA4621070CD40399514500DA8A46BAF1FD
:10542000010F05DD009AAAF10101515C302908D075
:10543000B84202DA10F1040F06DA0121CDE90110B9
:1054400015E0AAF10101E9E7002805DC049901440F
:105450000491AAEB000102E0411C514500DD8A469F
:105460000499401A401C01904FF000400290200720
:1054700004D40198504501DBCDF8048000208DF85C
:105480004F0002980DF14F07B0F1004F25D02B20AF
:105490000E9002984FF0020800280CDA4042029069
:1054A0002D200E9007E00A210298FBF7BBF830315F
:1054B000029007F8011DB8F10001A8F10108F2DC23
:1054C00002980028EFD1791E0E980870307800F00D
:1054D000200040F0450007F8020D12A8C01B00F1A3
:1054E00007081498007800B1012000EB0A01019828
:1054F00001EBE07105984144401A401E0590E0031D
:1055000006D45B462146179A059800F05DF80544DD
:105510001498007818B15A46179990476D1CE0030B
:1055200024D55B462146179A059800F04DF80544AE
:105530001CE00498002807DBDDE90301884203DD55
:105540000098405C179901E0179930205A4690471F
:10555000049805F10105401C04900198401E01903B
:1055600004D12E205A46179990476D1CBAF10001BC
:10557000AAF1010ADDDC05E017F8010B5A4617997C
:1055800090476D1CB8F10001A8F10108F4DC5B46FE
:105590002146179A0598ABE62D0000002B0000006D
:1055A000200000002DE9F041044600251E46174664
:1055B000880404D405E039462020B0476D1C641EE1
:1055C000F9D52846BDE8F0812DE9F04104460025D3
:1055D0001E469046C80301D5302700E020278804E6
:1055E00004D505E041463846B0476D1C641EF9D528
:1055F0002846BDE8F0810A68531C0B6010707047A4
:105600002DE9FF41002505600446012003A9CDE9ED
:105610000010322603468DF80C502F46D0220296F9
:10562000EF211248FCF76CF89DF80C00552800D0CB
:10563000012784F83A70204601F0A8FA84F83A006D
:105640000E21039584F83910022084F83800802157
:105650008DF80D1003A9CDE900100123F422029664
:10566000EE210248FCF748F9BDE8FF815C0100200B
:1056700010B504460020E070401EE062204601F0B4
:10568000F6F908B1042010BD04F22E2001F09AF8BA
:10569000A0F52A41553901D0032010BD94F83000FF
:1056A000E92805D0EB2814D194F83200902810D1C5
:1056B00004F1660001F07BF80749B1EB002F06D03A
:1056C00004F1820001F073F80449884201D10020FE
:1056D00010BD022010BD0000004641544641543325
:1056E000F0B50022144D134605EB021426685EB196
:1056F0000768BE4209D166688768BE4205D1A468C2
:105700004669B44204D000E00123521C022AEBD3C4
:10571000022A01D069B904E04BB9022907D012204E
:10572000F0BD05EB02108089B0F5807F01D000202C
:10573000F0BD1020F0BD00007402002030B5002143
:10574000054B0C4603EB01121568854200D114602D
:10575000491C0229F6D330BD740200200268490AB0
:10576000C06A5289B1FBF2F1001D04C81AB191421E
:1057700003D3891AF8E7002070470068084470478F
:105780004269891E921E8A4201D800207047826AAF
:10579000408901FB002070472DE9F04105680F00AA
:1057A000804606D000F036FE022809D20120BDE86E
:1057B000F081EE6816B16869B04207D8012605E0AD
:1057C000411CF4D069698142F1D83E46344668698B
:1057D000641CA04202D80224022E0AD3214640466D
:1057E00000F018FE38B10128E1D0411CDFD0B442EE
:1057F000EDD10020DBE74FF0FF3632462146284648
:1058000001F04EF930B957B122463946284601F029
:1058100047F920B101280FD001242046C7E7EC60EA
:10582000D5E90401891E884201D8401E28612879E3
:1058300040F001002871F0E73446EEE72DE9F04131
:105840000E4624300D6804460B22202101F008F991
:105850000020014608272A5C401C202A12D92F2A42
:105860000BD05C2A09D02E2A01D0B94214D30B2FB9
:1058700022D02E2A20D10CE0401C2B5C2F2BFBD0F9
:105880005C2BF9D028443060B1B12078E5281FD0D6
:1058900020E008210B27DEE7802A03D3114B1A44AE
:1058A00012F8802C10A300E05B1C93F800C0BCF140
:1058B000000F04D09445F7D10620BDE8F081A2F195
:1058C0006103192B01D8203AD2B26254491CC2E7B5
:1058D00005202070202A01D8042000E00020E0727A
:1058E0000020EAE75C6E0008222A2B2C3A3B3C3D64
:1058F0003E3F5B5D7C7F0000401E022812D20A49B9
:1059000001EB00118889B0F5807F05D008B1401EF9
:1059100080B2888110B103E00020FAE7002008601F
:105920000020704702207047740200202DE9F041EA
:1059300004460021056800F0D8F8002826D1284642
:10594000E16901F094F802001FD1206A017899B151
:10595000C17A01F03F01A171C17A09070FD404F1A6
:1059600024010B2610F8013B11F8017BDB1B761E8E
:1059700004D0002BF6D002E0042206E02BB1002177
:10598000204600F005F80200D9D01046BDE8F081AD
:105990002DE9F047054647690468C0698946203704
:1059A00010B1B7F5001F02D30420BDE8F087F90558
:1059B00060D1401CE861A9694FF0000829B16089F5
:1059C000401E10EA572F05D054E02089B0EB571F36
:1059D0001DD94FE0284600F01DFD064601281BD9C1
:1059E000701C33D06069B0423ED8B9F1000F0ED0C0
:1059F0002846A969FFF7D0FE06000BD0012E0BD078
:105A0000701C23D0204601F0CFF9F8B906E0C5F8A4
:105A10001C80C9E70720C8E70220C6E74FF40072E0
:105A2000002104F1300001F01BF84FF0000831466E
:105A30002046FFF7A5FE4FF00109E0620DE000BF30
:105A400084F80390204601F0AFF908B10120ACE7DB
:105A5000E06A08F10108401CE06261894145EFD825
:105A6000E16AA1EB0800E06231462046AE61FFF733
:105A700087FEE861C7F30800204430306F61286278
:105A8000002092E770B504460021066800F02DF86A
:105A90000DE03046E16900F0EAFF50B9206A007875
:105AA000E52809D040B101212046FFF771FF002809
:105AB000EFD0042807D007E03046E16900F0D7FFB7
:105AC000050003D00FE0072005460CE0202200214E
:105AD000206A00F0C5FF0B2204F12401206A00F0C7
